:100000000C9463000C948B000C948B000C948B006C
:100010000C948B000C948B000C948B000C94E102DC
:100020000C948B000C948B000C948B000C948B0024
:100030000C948B000C948B000C948B000C948B0014
:100040000C9497020C948B000C9489030C9463031A
:100050000C948B000C948B000C948B000C948B00F4
:100060000C948B000C948B000000000023002600F1
:1000700029000200000000240027002A00000000E0
:1000800000250028002B00040404040404040402D6
:100090000202020202030303030303010204081025
:1000A00020408001020408102001020408102000F2
:1000B0000000080002010000030407000000000027
:1000C000000000009B0611241FBECFEFD8E0DEBF6A
:1000D000CDBF11E0A0E0B1E0E2E8F1E102C005909F
:1000E0000D92A232B107D9F721E0A2E2B1E001C03E
:1000F0001D92A93DB207E1F710E0C3E6D0E004C0CD
:100100002197FE010E94EA06C236D107C9F70E9474
:1001100000040C94BF080C94000090E0FC01E15531
:10012000FF4F2491FC01E556FF4F3491FC01E95744
:10013000FF4FE491EE2309F43CC0222339F1233030
:1001400091F038F42130A9F0223001F584B58F7D8B
:1001500012C0273091F02830A1F02430B9F48091FA
:1001600080008F7D03C0809180008F778093800016
:100170000DC084B58F7784BD09C08091B0008F77A2
:1001800003C08091B0008F7D8093B000F0E0EE0F4F
:10019000FF1FE358FF4FA591B4919FB7F8946111E9
:1001A00004C08C913095382302C0EC913E2B3C93D7
:1001B0009FBF0895CF93DF9390E0FC01E556FF4F7A
:1001C0002491FC01E957FF4F8491882361F190E06D
:1001D000880F991FFC01ED58FF4FC591D491FC0188
:1001E000E358FF4FA591B491611109C09FB7F894EE
:1001F0008881209582238883EC912E230BC0623066
:1002000061F49FB7F8948881322F309583238883D7
:10021000EC912E2B2C939FBF06C08FB7F894E881EA
:100220002E2B28838FBFDF91CF9108953FB7F8948D
:100230008091380190913901A0913A01B0913B0130
:1002400026B5A89B05C02F3F19F00196A11DB11D31
:100250003FBFBA2FA92F982F8827820F911DA11D6C
:10026000B11DBC01CD0142E0660F771F881F991FA9
:100270004A95D1F708958F929F92AF92BF92CF92F5
:10028000DF92EF92FF920E9416014B015C0188EE13
:10029000C82E83E0D82EE12CF12C0E941601DC013F
:1002A000CB0188199909AA09BB09883E9340A10589
:1002B000B10598F321E0C21AD108E108F10888EEEF
:1002C000880E83E0981EA11CB11CC114D104E10466
:1002D000F10419F7FF90EF90DF90CF90BF90AF90AF
:1002E0009F908F900895CF92DF92EF92FF920F939D
:1002F0001F93CF93DF936C017A018B01C0E0D0E0B4
:10030000CE15DF0581F0D8016D918D01D601ED91FB
:10031000FC910190F081E02DC6010995892B11F027
:100320002196EECF7E01C701DF91CF911F910F91F2
:10033000FF90EF90DF90CF900895089580E090E0D7
:100340000895FC01538D448D252F30E0842F90E0DB
:10035000821B930B541710F0CF96089501970895C0
:10036000FC01918D828D981761F0828DDF01A80FBD
:10037000B11D5D968C91928D9F5F9F73928F90E0DF
:1003800008958FEF9FEF0895FC01918D828D98174E
:1003900031F0828DE80FF11D858D90E008958FEF8B
:1003A0009FEF0895FC01918D228D892F90E0805C54
:1003B0009F4F821B91098F73992708958CE391E0D9
:1003C0000E94D20121E0892B09F420E0822F0895B8
:1003D000FC01848DDF01A80FB11DA35ABF4F2C91E2
:1003E000848D90E001968F739927848FA689B789B1
:1003F0002C93A089B1898C91837080648C93938DA8
:10040000848D981306C00288F389E02D80818F7D4A
:1004100080830895EF92FF920F931F93CF93DF9302
:10042000EC0181E0888F9B8D8C8D981305C0E88945
:10043000F989808185FD26C0F62E0B8D10E00F5FB7
:100440001F4F0F731127E02E8C8DE8120CC00FB6D2
:1004500007FCFACFE889F989808185FFF5CFCE01C5
:100460000E94E801F1CF8B8DFE01E80FF11DE35AE8
:10047000FF4FF0829FB7F8940B8FEA89FB89808148
:1004800080620AC09FB7F894EE89FF896083E8898B
:10049000F98980818370806480839FBF81E090E0D0
:1004A000DF91CF911F910F91FF90EF900895CF931F
:1004B000DF93EC01888D8823C9F0EA89FB8980816C
:1004C00085FD05C0A889B9898C9186FD0FC00FB63E
:1004D00007FCF5CF808185FFF2CFA889B9898C917F
:1004E00085FFEDCFCE010E94E801E7CFDF91CF91EC
:1004F000089580E090E0892B29F00E94DE018111AF
:100500000C9400000895009769F0FC010190002010
:10051000E9F73197AF01481B590BBC018CE391E01F
:100520000C94730180E090E008950E94BA081F9235
:100530000F920FB60F9211242F933F938F939F9397
:10054000AF93BF938091340190913501A091360112
:10055000B09137013091330123E0230F2D3720F480
:100560000196A11DB11D05C026E8230F0296A11D0D
:10057000B11D209333018093340190933501A093F2
:100580003601B09337018091380190913901A091E3
:100590003A01B0913B010196A11DB11D8093380134
:1005A00090933901A0933A01B0933B01BF91AF9171
:1005B0009F918F913F912F910F900FBE0F901F90A1
:1005C00018951F920F920FB60F9211242F933F93FD
:1005D0004F935F936F937F938F939F93AF93BF934B
:1005E000EF93FF938091270190912801A091290119
:1005F000B0912A01892B8A2B8B2B59F190912201E2
:10060000E0912301F09124018081892780838091EA
:10061000270190912801A0912901B0912A01181673
:1006200019061A061B060CF03DC080912701909117
:100630002801A0912901B0912A010197A109B109CE
:100640008093270190932801A0932901B0932A0158
:1006500029C080910001E2E7F0E0E4919FEF9093E0
:100660000001E130B9F098F0E230C9F490917000E7
:100670009D7F9093700091E09093B0009091B100B5
:10068000987F94609093B1001092B30008C01092CC
:100690006E0005C090916F009D7F90936F0060E0A9
:1006A0000E948D00FF91EF91BF91AF919F918F912B
:1006B0007F916F915F914F913F912F910F900FBE5E
:1006C0000F901F9018951F920F920FB60F92112442
:1006D0002F933F934F935F936F937F938F939F934A
:1006E000AF93BF93EF93FF938CE391E00E94E801F7
:1006F000FF91EF91BF91AF919F918F917F916F91FA
:100700005F914F913F912F910F900FBE0F901F90CF
:1007100018951F920F920FB60F9211242F938F935B
:100720009F93EF93FF93E0914C01F0914D018081F5
:10073000E0915201F091530182FD12C090818091AD
:1007400055018F5F8F7320915601821751F0E09110
:100750005501F0E0E45CFE4F958F8093550101C098
:100760008081FF91EF919F918F912F910F900FBEFC
:100770000F901F901895CF92DF92EF92FF920F93F8
:100780001F93E82FF92F05C00150110921093109E4
:1007900061F1908196239417B9F305C001501109B6
:1007A0002109310911F1908196239413F7CFC12CBF
:1007B000D12CE12CF12C0AC08FEFC81AD80AE80A14
:1007C000F80A0C151D052E053F0579F0808186235A
:1007D000841791F36C2D7D2D8E2D9F2D1F910F91E0
:1007E000FF90EF90DF90CF90089560E070E080E0A0
:1007F00090E01F910F91FF90EF90DF90CF900895C0
:10080000CF93DF93CDB7DEB7A2970FB6F894DEBFD4
:100810000FBECDBF789484B5826084BD84B58160FD
:1008200084BD85B5826085BD85B5816085BD8091BB
:100830006E00816080936E00109281008091810033
:10084000826080938100809181008160809381002B
:10085000809180008160809380008091B1008460ED
:100860008093B1008091B00081608093B00080914E
:100870007A00846080937A0080917A00826080930D
:100880007A0080917A00816080937A0080917A006A
:10089000806880937A001092C10060E082E00E943C
:1008A000DA0061E083E00E94DA0061E08DE00E94FE
:1008B000DA0061E088E00E94DA00E0914C01F091FA
:1008C0004D0182E08083E0914801F091490110825E
:1008D000E0914A01F0914B018FEC8083109254011A
:1008E000E0915001F091510186E08083E0914E014A
:1008F000F0914F01808180618083E0914E01F09101
:100900004F01808188608083E0914E01F0914F011A
:10091000808180688083E0914E01F0914F01808159
:100920008F7D808360E083E00E948D0083E090E013
:100930000197F1F761E083E00E948D0083E290E08F
:100940000197F1F7EDE9F0E06491E9E8F0E08491D6
:10095000E82FF0E0EE0FFF1FE859FF4F85919491CB
:1009600000E412E42FE030E0462F0E94BB03611543
:1009700071058105910549F0DC01CB010196A11DAE
:10098000B11DBC01CD019F7003C060E070E0CB01E0
:100990000E94930726E933E44BE05DE30E94480898
:1009A00020E030E040E05FE30E9448086B017C01FA
:1009B0009B01AC010E94B508882319F083E191E006
:1009C0001AC046015701E894B7F82FEF3FEF4FE701
:1009D0005FE7C501B4010E94B50881110FC02FEF78
:1009E0003FEF4FE75FE7C501B4010E945D071816AE
:1009F0002CF487E191E00E9483029FC02FEF3FEF2C
:100A00004FE75FE4C701B6010E94430818161CF4C3
:100A10008BE191E0F0CF2FEF3FEF4FE75FECC701A5
:100A2000B6010E945D0787FDF3CF20E030E0A90109
:100A3000C701B6010E945D0787FF09C06DE28CE324
:100A400091E00E940A02C701B601905802C0C70196
:100A5000B6012AE037ED43EA5BE30E94F1062B0181
:100A60003C010E9462074B015C010E9491079B01BF
:100A7000AC01C301B2010E94F0062B013C0119A296
:100A80008E010F5D1F4F0AA3212EC501B4012AE07C
:100A900030E040E050E00E94C80649015A01605D24
:100AA000D8016E938D01232B242B252B71F7CD01BB
:100AB0000E9483026EE28CE391E00E940A0233E01E
:100AC000B32EBA94BB20C9F120E030E040E251E4FB
:100AD000C301B2010E9448082B013C010E94620739
:100AE0009B0140E050E019A20AA1122D362E832E60
:100AF000942EA52ECA01B9012AE030E040E050E072
:100B00000E94C806605DF80162938F0121153105CE
:100B10004105510579F7CF010E948302632D782D9D
:100B2000892D9A2D0E9491079B01AC01C301B2014E
:100B30000E94F0062B013C01C4CF8FE191E00E949E
:100B4000830220E030E040E351E4C701B6010E9497
:100B50005D0718160CF4E6C061E08DE00E948D0080
:100B600080910001883021F08F3F09F0DFC004C080
:100B7000E2E7F0E0149174C088E080930001E2E7BE
:100B8000F0E014911F3F09F4D1C0113009F445C0C1
:100B900050F1123009F064C01092B0001092B10010
:100BA0008091B00082608093B0008091B10081603C
:100BB0008093B100EFE8F0E08491E82FF0E0EE0FD1
:100BC000FF1FE358FF4F85919491909324018093E8
:100BD0002301E3EAF0E084918093220161E088E060
:100BE0000E94DA0060C014BC15BC84B5826084BD6C
:100BF00085B5816085BDEFE8F0E08491E82FF0E0F5
:100C0000EE0FFF1FE358FF4F85919491E3EAF0E068
:100C100084918093260110E025C0109280001092EC
:100C200081008091810088608093810080918100A3
:100C3000816080938100EFE8F0E08491E82FF0E09C
:100C4000EE0FFF1FE358FF4F85919491E3EAF0E028
:100C500084918093250161E088E00E94DA002DC034
:100C600017FD64C061E088E00E94DA00112319F0EA
:100C7000123009F518C085B5887F836085BD8CE783
:100C800087BD88EE93E0A0E0B0E080932F019093C1
:100C90003001A0933101B093320180916E008260E7
:100CA00080936E0043C08091B100887F8360809301
:100CB000B10089EF23C01130F1F480918100887F69
:100CC000816080938100AFE3BFE1B0938900A0937E
:100CD000880088EE93E0A0E0B0E080932B01909331
:100CE0002C01A0932D01B0932E0180916F008260A2
:100CF00080936F001BC01230C9F48FE38093B30060
:100D000088EE93E0A0E0B0E0809327019093280163
:100D1000A0932901B0932A01809170008260809392
:100D2000700004C060E08DE00E948D000E943B01D5
:100D30000E947902F7CDECE3F1E01382128288EE93
:100D400093E0A0E0B0E084839583A683B78385E039
:100D500091E09183808385EC90E09587848784EC93
:100D600090E09787868780EC90E0918B808B81EC78
:100D700090E0938B828B82EC90E0958B848B86EC59
:100D800090E0978B868B118E128E138E148E0895A1
:100D9000A1E21A2EAA1BBB1BFD010DC0AA1FBB1F7F
:100DA000EE1FFF1FA217B307E407F50720F0A21BF1
:100DB000B30BE40BF50B661F771F881F991F1A945E
:100DC00069F760957095809590959B01AC01BD0188
:100DD000CF010895EE0FFF1F0590F491E02D0994C7
:100DE0005058BB27AA270E9408070C9409080E94A4
:100DF000FB0738F00E94020820F039F49F3F19F4F5
:100E000026F40C94F8070EF4E095E7FB0C94F20737
:100E1000E92F0E941A0858F3BA176207730784076C
:100E2000950720F079F4A6F50C943C080EF4E095B3
:100E30000B2EBA2FA02D0B01B90190010C01CA0194
:100E4000A0011124FF27591B99F0593F50F4503E3F
:100E500068F11A16F040A22F232F342F4427585F31
:100E6000F3CF469537952795A795F0405395C9F749
:100E70007EF41F16BA0B620B730B840BBAF0915001
:100E8000A1F0FF0FBB1F661F771F881FC2F70EC0A0
:100E9000BA0F621F731F841F48F487957795679573
:100EA000B795F7959E3F08F0B0CF9395880F08F05F
:100EB0009927EE0F9795879508950E94CE0708F41D
:100EC00081E008950E94220888F09F5798F0B92F7A
:100ED0009927B751B0F0E1F0660F771F881F991F6F
:100EE0001AF0BA95C9F714C0B13091F00E943C08CD
:100EF000B1E008950C943C08672F782F8827B85FDD
:100F000039F0B93FCCF3869577956795B395D9F7C6
:100F10003EF490958095709561957F4F8F4F9F4FD0
:100F20000895E89409C097FB3EF4909580957095DC
:100F300061957F4F8F4F9F4F9923A9F0F92F96E925
:100F4000BB279395F695879577956795B795F1119A
:100F5000F8CFFAF4BB0F11F460FF1BC06F5F7F4F37
:100F60008F4F9F4F16C0882311F096E911C0772349
:100F700021F09EE8872F762F05C0662371F096E852
:100F8000862F70E060E02AF09A95660F771F881F21
:100F9000DAF7880F9695879597F90895990F0008C5
:100FA000550FAA0BE0E8FEEF16161706E807F9073B
:100FB000C0F012161306E407F50798F0621B730BD6
:100FC000840B950B39F40A2661F0232B242B252B57
:100FD00021F408950A2609F4A140A6958FEF811DFA
:100FE000811D089597F99F6780E870E060E008959B
:100FF0009FEF80EC089500240A9416161706180631
:101000000906089500240A9412161306140605060C
:101010000895092E0394000C11F4882352F0BB0F9D
:1010200040F4BF2B11F460FF04C06F5F7F4F8F4F00
:101030009F4F089557FD9058440F551F59F05F3F3B
:1010400071F04795880F97FB991F61F09F3F79F0EA
:1010500087950895121613061406551FF2CF46956C
:10106000F1DF08C0161617061806991FF1CF8695EE
:101070007105610508940895E894BB2766277727D2
:10108000CB0197F908950E94CE0708F48FEF0895D9
:101090000E945B080C9409080E94FB0738F00E942C
:1010A000020820F0952311F00C94F2070C94F80735
:1010B00011240C943D080E941A0870F3959FC1F307
:1010C000950F50E0551F629FF001729FBB27F00DF6
:1010D000B11D639FAA27F00DB11DAA1F649F66274B
:1010E000B00DA11D661F829F2227B00DA11D621F9A
:1010F000739FB00DA11D621F839FA00D611D221F54
:10110000749F3327A00D611D231F849F600D211D37
:10111000822F762F6A2F11249F5750409AF0F1F0BA
:1011200088234AF0EE0FFF1FBB1F661F771F881F23
:1011300091505040A9F79E3F510580F00C94F20762
:101140000C943D085F3FE4F3983ED4F38695779581
:101150006795B795F795E7959F5FC1F7FE2B880FC9
:10116000911D9695879597F908950E94CE07880B53
:10117000990B089581E090E0F8940C94BF08F894DE
:02118000FFCF9F
:10118200FF000000000A027301A1015702D201B060
:1011920001C4016E616E00696E66006F7666000DB5
:0211A2000A0041
:00000001FF
